{
  "contractName": "ToDoContract",
  "abi": [
    {
      "inputs": [],
      "stateMutability": "nonpayable",
      "type": "constructor"
    },
    {
      "anonymous": false,
      "inputs": [
        {
          "indexed": false,
          "internalType": "uint256",
          "name": "id",
          "type": "uint256"
        },
        {
          "indexed": false,
          "internalType": "string",
          "name": "title",
          "type": "string"
        },
        {
          "indexed": false,
          "internalType": "string",
          "name": "description",
          "type": "string"
        },
        {
          "indexed": false,
          "internalType": "bool",
          "name": "done",
          "type": "bool"
        },
        {
          "indexed": false,
          "internalType": "uint256",
          "name": "createdAt",
          "type": "uint256"
        }
      ],
      "name": "TaskCreated",
      "type": "event"
    },
    {
      "anonymous": false,
      "inputs": [
        {
          "indexed": false,
          "internalType": "uint256",
          "name": "id",
          "type": "uint256"
        },
        {
          "indexed": false,
          "internalType": "bool",
          "name": "done",
          "type": "bool"
        }
      ],
      "name": "TaskToggleDone",
      "type": "event"
    },
    {
      "inputs": [],
      "name": "taskCounter",
      "outputs": [
        {
          "internalType": "uint256",
          "name": "",
          "type": "uint256"
        }
      ],
      "stateMutability": "view",
      "type": "function",
      "constant": true
    },
    {
      "inputs": [
        {
          "internalType": "uint256",
          "name": "",
          "type": "uint256"
        }
      ],
      "name": "tasks",
      "outputs": [
        {
          "internalType": "uint256",
          "name": "id",
          "type": "uint256"
        },
        {
          "internalType": "string",
          "name": "title",
          "type": "string"
        },
        {
          "internalType": "string",
          "name": "description",
          "type": "string"
        },
        {
          "internalType": "bool",
          "name": "done",
          "type": "bool"
        },
        {
          "internalType": "uint256",
          "name": "createAt",
          "type": "uint256"
        }
      ],
      "stateMutability": "view",
      "type": "function",
      "constant": true
    },
    {
      "inputs": [
        {
          "internalType": "string",
          "name": "_title",
          "type": "string"
        },
        {
          "internalType": "string",
          "name": "_description",
          "type": "string"
        }
      ],
      "name": "createTask",
      "outputs": [],
      "stateMutability": "nonpayable",
      "type": "function"
    },
    {
      "inputs": [
        {
          "internalType": "uint256",
          "name": "_id",
          "type": "uint256"
        }
      ],
      "name": "toggleDone",
      "outputs": [],
      "stateMutability": "nonpayable",
      "type": "function"
    }
  ],
  "bytecode": "0x6080604052600080553480156200001557600080fd5b50620000926040518060400160405280601081526020017f546172656120646520656a656d706c6f000000000000000000000000000000008152506040518060400160405280601681526020017f456a656d706c6f206465206465736372697063696f6e000000000000000000008152506200009860201b60201c565b62000487565b600080815480929190620000ac9062000297565b91905055506040518060a00160405280600054815260200183815260200182815260200160001515815260200142815250600160008054815260200190815260200160002060008201518160000155602082015181600101908051906020019062000119929190620001ae565b50604082015181600201908051906020019062000138929190620001ae565b5060608201518160030160006101000a81548160ff021916908315150217905550608082015181600401559050507f6549102bed7d1bb5ec529ee14e2ca60ffc1f47f66d4cc6ca713220613cc64c256000548383600042604051620001a2959493929190620003b7565b60405180910390a15050565b828054620001bc9062000451565b90600052602060002090601f016020900481019282620001e057600085556200022c565b82601f10620001fb57805160ff19168380011785556200022c565b828001600101855582156200022c579182015b828111156200022b5782518255916020019190600101906200020e565b5b5090506200023b91906200023f565b5090565b5b808211156200025a57600081600090555060010162000240565b5090565b7f4e487b7100000000000000000000000000000000000000000000000000000000600052601160045260246000fd5b6000819050919050565b6000620002a4826200028d565b91507fffffffffffffffffffffffffffffffffffffffffffffffffffffffffffffffff821415620002da57620002d96200025e565b5b600182019050919050565b620002f0816200028d565b82525050565b600081519050919050565b600082825260208201905092915050565b60005b838110156200033257808201518184015260208101905062000315565b8381111562000342576000848401525b50505050565b6000601f19601f8301169050919050565b60006200036682620002f6565b62000372818562000301565b93506200038481856020860162000312565b6200038f8162000348565b840191505092915050565b60008115159050919050565b620003b1816200039a565b82525050565b600060a082019050620003ce6000830188620002e5565b8181036020830152620003e2818762000359565b90508181036040830152620003f8818662000359565b9050620004096060830185620003a6565b620004186080830184620002e5565b9695505050505050565b7f4e487b7100000000000000000000000000000000000000000000000000000000600052602260045260246000fd5b600060028204905060018216806200046a57607f821691505b6020821081141562000481576200048062000422565b5b50919050565b610ad080620004976000396000f3fe608060405234801561001057600080fd5b506004361061004c5760003560e01c8063292a458514610051578063586717301461006d5780638d9776721461008b578063d81ef739146100bf575b600080fd5b61006b6004803603810190610066919061078f565b6100db565b005b6100756101e9565b6040516100829190610820565b60405180910390f35b6100a560048036038101906100a09190610867565b6101ef565b6040516100b6959493929190610937565b60405180910390f35b6100d960048036038101906100d49190610867565b610342565b005b6000808154809291906100ed906109c7565b91905055506040518060a001604052806000548152602001838152602001828152602001600015158152602001428152506001600080548152602001908152602001600020600082015181600001556020820151816001019080519060200190610158929190610592565b506040820151816002019080519060200190610175929190610592565b5060608201518160030160006101000a81548160ff021916908315150217905550608082015181600401559050507f6549102bed7d1bb5ec529ee14e2ca60ffc1f47f66d4cc6ca713220613cc64c2560005483836000426040516101dd959493929190610937565b60405180910390a15050565b60005481565b600160205280600052604060002060009150905080600001549080600101805461021890610a3f565b80601f016020809104026020016040519081016040528092919081815260200182805461024490610a3f565b80156102915780601f1061026657610100808354040283529160200191610291565b820191906000526020600020905b81548152906001019060200180831161027457829003601f168201915b5050505050908060020180546102a690610a3f565b80601f01602080910402602001604051908101604052809291908181526020018280546102d290610a3f565b801561031f5780601f106102f45761010080835404028352916020019161031f565b820191906000526020600020905b81548152906001019060200180831161030257829003601f168201915b5050505050908060030160009054906101000a900460ff16908060040154905085565b6000600160008381526020019081526020016000206040518060a00160405290816000820154815260200160018201805461037c90610a3f565b80601f01602080910402602001604051908101604052809291908181526020018280546103a890610a3f565b80156103f55780601f106103ca576101008083540402835291602001916103f5565b820191906000526020600020905b8154815290600101906020018083116103d857829003601f168201915b5050505050815260200160028201805461040e90610a3f565b80601f016020809104026020016040519081016040528092919081815260200182805461043a90610a3f565b80156104875780601f1061045c57610100808354040283529160200191610487565b820191906000526020600020905b81548152906001019060200180831161046a57829003601f168201915b505050505081526020016003820160009054906101000a900460ff1615151515815260200160048201548152505090508060600151158160600190151590811515815250508060016000848152602001908152602001600020600082015181600001556020820151816001019080519060200190610506929190610592565b506040820151816002019080519060200190610523929190610592565b5060608201518160030160006101000a81548160ff021916908315150217905550608082015181600401559050507f389dee00d487dd41dd5bf0f43eeaa5b663b3af022d52368df89d388150295f45828260600151604051610586929190610a71565b60405180910390a15050565b82805461059e90610a3f565b90600052602060002090601f0160209004810192826105c05760008555610607565b82601f106105d957805160ff1916838001178555610607565b82800160010185558215610607579182015b828111156106065782518255916020019190600101906105eb565b5b5090506106149190610618565b5090565b5b80821115610631576000816000905550600101610619565b5090565b6000604051905090565b600080fd5b600080fd5b600080fd5b600080fd5b6000601f19601f8301169050919050565b7f4e487b7100000000000000000000000000000000000000000000000000000000600052604160045260246000fd5b61069c82610653565b810181811067ffffffffffffffff821117156106bb576106ba610664565b5b80604052505050565b60006106ce610635565b90506106da8282610693565b919050565b600067ffffffffffffffff8211156106fa576106f9610664565b5b61070382610653565b9050602081019050919050565b82818337600083830152505050565b600061073261072d846106df565b6106c4565b90508281526020810184848401111561074e5761074d61064e565b5b610759848285610710565b509392505050565b600082601f83011261077657610775610649565b5b813561078684826020860161071f565b91505092915050565b600080604083850312156107a6576107a561063f565b5b600083013567ffffffffffffffff8111156107c4576107c3610644565b5b6107d085828601610761565b925050602083013567ffffffffffffffff8111156107f1576107f0610644565b5b6107fd85828601610761565b9150509250929050565b6000819050919050565b61081a81610807565b82525050565b60006020820190506108356000830184610811565b92915050565b61084481610807565b811461084f57600080fd5b50565b6000813590506108618161083b565b92915050565b60006020828403121561087d5761087c61063f565b5b600061088b84828501610852565b91505092915050565b600081519050919050565b600082825260208201905092915050565b60005b838110156108ce5780820151818401526020810190506108b3565b838111156108dd576000848401525b50505050565b60006108ee82610894565b6108f8818561089f565b93506109088185602086016108b0565b61091181610653565b840191505092915050565b60008115159050919050565b6109318161091c565b82525050565b600060a08201905061094c6000830188610811565b818103602083015261095e81876108e3565b9050818103604083015261097281866108e3565b90506109816060830185610928565b61098e6080830184610811565b9695505050505050565b7f4e487b7100000000000000000000000000000000000000000000000000000000600052601160045260246000fd5b60006109d282610807565b91507fffffffffffffffffffffffffffffffffffffffffffffffffffffffffffffffff821415610a0557610a04610998565b5b600182019050919050565b7f4e487b7100000000000000000000000000000000000000000000000000000000600052602260045260246000fd5b60006002820490506001821680610a5757607f821691505b60208210811415610a6b57610a6a610a10565b5b50919050565b6000604082019050610a866000830185610811565b610a936020830184610928565b939250505056fea2646970667358221220499b94ca1f73f3ee43deaa5c7afab109b0432996b23036c12319005ef1763d7664736f6c63430008080033",
  "immutableReferences": {},
  "source": "// SPDX-License-Identifier: MIT\r\npragma solidity ^0.8.8;\r\n\r\n// Contrato\r\ncontract ToDoContract {\r\n    // Contador\r\n    uint256 public taskCounter = 0;\r\n\r\n    constructor () {\r\n        createTask(\"Tarea de ejemplo\", \"Ejemplo de descripcion\");\r\n    }\r\n\r\n    event TaskCreated(\r\n        uint id,\r\n        string title,\r\n        string description,\r\n        bool done,\r\n        uint createdAt\r\n    );\r\n\r\n    event TaskToggleDone (\r\n        uint id,\r\n        bool done\r\n    );\r\n\r\n    // Estructura de una tarea\r\n    struct Task {\r\n        uint256 id;\r\n        string title;\r\n        string description;\r\n        bool done;\r\n        uint256 createAt;\r\n    }\r\n    \r\n    // Array\r\n    mapping(uint256 => Task) public tasks;\r\n\r\n    // Funcion para crear una tarea\r\n    function createTask(string memory _title, string memory _description) public {\r\n        taskCounter++;\r\n        tasks[taskCounter] = Task(taskCounter, _title, _description, false, block.timestamp);\r\n        emit TaskCreated(taskCounter, _title, _description, false, block.timestamp);\r\n    }\r\n\r\n    // Funcion para marcar una trea como completada\r\n    function toggleDone(uint256 _id) public {\r\n       Task memory _task = tasks[_id];\r\n       _task.done = !_task.done;\r\n       tasks[_id] = _task;\r\n       emit TaskToggleDone(_id, _task.done);\r\n    }\r\n}",
  "sourcePath": "D:\\Programacion\\Solidity\\DApp - ToDo\\contracts\\ToDoContract.sol",
  "compiler": {
    "name": "solc",
    "version": "0.8.8+commit.dddeac2f.Emscripten.clang"
  },
  "schemaVersion": "3.4.3",
  "updatedAt": "2021-09-28T22:06:01.448Z",
  "networkType": "ethereum",
  "devdoc": {
    "kind": "dev",
    "methods": {},
    "version": 1
  },
  "userdoc": {
    "kind": "user",
    "methods": {},
    "version": 1
  }
}